:020000040800F2
:10000000C84000209D010008795100089F4D00085C
:1000100075510008E1140008DD7F000800000000B1
:10002000000000000000000000000000F55500087E
:1000300063210008000000004B540008F755000839
:10004000B7010008B7010008B7010008B7010008B0
:10005000B7010008B7010008B7010008B7010008A0
:10006000B7010008B7010008B7010008B701000890
:10007000B7010008B7010008B7010008B701000880
:10008000B7010008B7010008B7010008B701000870
:10009000B7010008B7010008B7010008B701000860
:1000A000B7010008B7010008B7010008B701000850
:1000B000B7010008B7010008B7010008B701000840
:1000C000B7010008B7010008B7010008B701000830
:1000D000B70100083D5E0008B7010008B70100083D
:1000E000B7010008B7010008B7010008B701000810
:1000F000B7010008B7010008B7010008B701000800
:10010000B7010008B7010008B7010008B7010008EF
:10011000B7010008B7010008D1560008E1560008F1
:10012000B7010008B701000839200008B70100082E
:10013000B7010008B7010008B7010008B7010008BF
:10014000B7010008B7010008B70100087D51000899
:10015000B7010008B701000849200008B7010008EE
:10016000B7010008B7010008B7010008B70100088F
:10017000B7010008B7010008B7010008000000003F
:10018000B7010008B7010008DFF80CD000F04CFC04
:100190000048004761930008C84000200648804797
:1001A00006480047FEE7FEE7FEE7FEE7FEE7FEE75C
:1001B000FEE7FEE7FEE7FEE7B55600088901000806
:1001C0002DE9F05F0546002092469B46884606468C
:1001D000814640241BE0284641464746224600F01F
:1001E000E2FA53465A46C01A914110D311461846B6
:1001F000224600F0C9FA2D1A67EB01084F46224645
:100200000120002100F0C0FA17EB00094E41201E2A
:10021000A4F10104DFDC484631462A464346BDE8E6
:10022000F09F40EA01039B0703D009E008C9121FB1
:1002300008C0042AFAD203E011F8013B00F8013BA0
:10024000521EF9D27047D2B201E000F8012B491ECC
:10025000FBD270470022F6E710B513460A46044663
:100260001946FFF7F0FF204610BD421C10F8011B95
:100270000029FBD1801A70470FB400B58DB010A9CA
:1002800009900B9000914FF0FF300A9000200C90E5
:1002900005480690054807906A4609A80F9900F09E
:1002A000B9FA0DB05DF814FB310800084F080008DA
:1002B0002DE9FF5F1D464FF0FF3BD5E90146914612
:1002C0005F464FF00008A9697F1C01988847296A9A
:1002D000824688470028F6D11AF101000CD024F498
:1002E000C064002E19DD600614D5BAF12B0F09D0B9
:1002F000BAF12D0F0ED103E0584604B0BDE8F09FCF
:1003000044F48064A9697F1C01988847761E824660
:10031000002E02DDBAF1300F03D0B9F1000F26D064
:1003200032E0761EA96944F400747F1C0198884766
:100330008246002E05DDBAF1780F06D0BAF1580FCB
:1003400003D0B9F1000F10D01EE0B9F1000F02D0B8
:10035000B9F1100F18D1761EA96924F400747F1C1E
:10036000019888478246102002E0082000E00A2019
:10037000814609E008FB0908761EA96944F4007467
:100380007F1C019888478246002E05DD494650466D
:1003900000F02BFA0028EDDAE96901988847A005FA
:1003A00002D46FF00100A8E7E00727D1600614D55A
:1003B000600502D5C8F1000000E04046296801F15F
:1003C00004022A600968220501D5087016E0220798
:1003D00001D5088012E0086010E0286800F10401EF
:1003E00029600068210502D580F8008006E0210719
:1003F00002D5A0F8008001E0C0F8008038467CE714
:100400002DE9FE4F804681EA0300C00F0C460090A4
:1004100021F0004123F00045B8EB0200A94105D2CC
:100420004046214690461C460B46024623F00040BB
:10043000104304D14046214603B0BDE8F08F270D9C
:10044000C7F30A00C3F30A510290401A01904028F2
:1004500066DAC3F3130040F4801B0098924620B183
:100460000023D2EB030A63EB0B0B01985946C0F152
:100470004002504600F088F906460D46504659465F
:10048000019A00F0A0F910EB08006141002487EA0E
:10049000115284EAE7731A433BD0009A3AB3019AA7
:1004A000012A4FEA075210DC001B61EB02014FF0FA
:1004B000004202EA0752CDE90042001C41F58011DA
:1004C00032462B4600F0E1F9B6E7001B61EB020172
:1004D000001C41F5801300185B412018A2F500179D
:1004E00047EB030140EAD570B6196D4111E06D0884
:1004F0004FEA360645EAC0754FEA0752001B61EB2A
:100500000201001C41F5801149084FEA3000001932
:10051000514132462B4603B0BDE8F04F00F0A8B978
:100520000098012240000023D0EB020263EBE0734D
:10053000009821464FEAE074B8EB000061EB04013B
:10054000E9E783F000435BE781F0004158E72DE9DC
:10055000FE4F81EA030404F0004421F000410094BE
:100560004FF0000B23F0004350EA010402D052EA9E
:10057000030404D10020014603B0BDE8F08FC3F3AB
:100580000A54C1F30A552C44A4F2F3340194A0FB9D
:100590000254C1F3130141F48011C3F3130343F474
:1005A000801301FB024400FB034E840A970A44EACD
:1005B000815447EA8357A4FB076802958D0A05FB1F
:1005C00007854FEA932C04FB0C542705029D4FEA44
:1005D000065847EA1637B5EB08056EEB070C870E91
:1005E000920E47EA811742EA8312A7FB0201B6EB9B
:1005F0000B0164EB00042B0D43EA0C335E1844EB53
:100600001C50DA465146E7FB0201C5F313044FEADA
:100610000B3343EA14534FEA0432019C43EA0603C6
:10062000A4F10C040294009CCDE900B400F02DF973
:10063000A2E72DE9F04D81EA030404F0004B21F01C
:10064000004514464FF0000A23F0004150EA05022D
:1006500020D054EA01021DD0C5F30A570246C5F363
:100660001303C1F31300C1F30A5640F4801543F499
:100670008013A7EB0608101BD64608F2FD3873EB73
:10068000050002D308F1010801E092185B41B8F1BE
:10069000000F03DA00200146BDE8F08D00204FF482
:1006A0008011064684460EE0171B73EB050705D341
:1006B000121B63EB050306434CEA010C49084FEAA1
:1006C000300092185B4150EA0107EDD152EA030075
:1006D00012D082EA040083EA0501084303D1002214
:1006E0004FF0004308E0101BAB4102D2012200236F
:1006F00002E06FF0010253101AEB06004CEB0851B8
:1007000010EB0A0041EB0B01BDE8F04D00F0B0B872
:100710000EB540F2334102910021CDE900110A46A5
:100720000B4600F0B2F803B000BDC1F30A5210B599
:10073000C1F3130140F2FF3341F480119A4201DA10
:10074000002010BD40F233439A42A2F2334203DC50
:10075000524200F028F810BD904010BD30B50B4655
:10076000014600202022012409E021FA02F59D42E1
:1007700005D303FA02F5491B04FA02F52844151EB5
:10078000A2F10102F1DC30BD202A04DB203A00FA9C
:1007900002F1002070479140C2F1200320FA03F3D8
:1007A000194390407047202A04DB203A21FA02F0D6
:1007B0000021704721FA02F3D040C2F1200291409B
:1007C000084319467047202A06DBCB17203A41FA26
:1007D00002F043EAE07306E041FA02F3D040C2F1CE
:1007E000200291400843194670473A2800D2303819
:1007F00020F02002412A01D3A2F13700884201D320
:100800004FF0FF3070470000026811441378016018
:1008100018467047D16004495161044911620021B2
:100820001161114600F018B9090800084D0A0008C6
:10083000426842B1016811F8013B23B1521EC0E980
:100840000012184670470121C160881E7047426837
:100850005AB1C368016843B983688B4205D0491E09
:10086000521CC0E90012002070474FF0FF30704763
:1008700010B5002B08DA401C41F1000192185B41D1
:100880001A4301D120F0010010BD2DE9F04D924630
:100890009B4611B1B1FA81F202E0B0FA80F2203247
:1008A0009046FFF771FF04460F4640EA0A0041EA0E
:1008B0000B0153465A46084303D120463946BDE84A
:1008C000F08D114653EA010015D0C8F140025046A0
:1008D000FFF769FF05460E46504659464246FFF768
:1008E00053FF084301D0012000E00020054346EA01
:1008F000E0762C4337430A984FEA4453A0EB0800B4
:100900004FEAD4240A304FF0000244EA47544FEA39
:10091000D72502D500200146D1E70105101969410C
:10092000DDE9084500196941BDE8F04DA0E72DE972
:10093000F04D00231A461B1A8A4103DB00200146B2
:10094000BDE8F08DC1F30A52C1F3130141F48015E3
:100950004FF0000BD10702D100186D41521E002745
:10096000044640F2FF11384601EB620A3E468046DB
:10097000024600204FF48011FFF715FFC2197141A4
:10098000BB1846EB0100B4EB030C75EB000C04D371
:10099000E41A65EB000517460E46241908F101001C
:1009A0006D4180463428E3DDF91946EB0600091B4A
:1009B000A84103D24FF0FF32134601E00022134654
:1009C0001BEB070046EB0A51BDE8F04DFFF750BFA7
:1009D000C1F30A52C1F3130140F2FF3341F4801115
:1009E0009A4202DA00200146704740F233439A42AD
:1009F000A2F2334202DC5242FFF7D5BEFFF7C4BE7B
:100A000030B5002904DB4FF00044404264EB0101A3
:100A1000002B04DB4FF00044524264EB0303994285
:100A200008BF904230BD0000064C074D06E0E0686C
:100A300040F0010394E8070098471034AC42F6D325
:100A4000FFF7A6FB7896000898960008C0B24FF40E
:100A5000F05100F0C7B900002DE9F34F8BB04FF013
:100A6000000801F10C000C464FF0010B46460DF159
:100A7000080A0190626901210198904705002DD074
:100A8000252D2CD0216A8847C0B1626901210198C7
:100A90009047216A88470028F7D1411E6269019872
:100AA000904700E0761CA1690B988847216A884727
:100AB0000028F7D1E1690B988847DBE7A1690B981B
:100AC00088470746A84201D1761CD3E7E1690B9815
:100AD00088477F1C02D1B8F1000F6FD045E1002795
:100AE00062693D463946019890472A2804D16269D7
:100AF0000121019890470125DFF884926269012164
:100B000001989047A0F130010A290AD24F45E5DC4F
:100B100007EB870100EB4107303FDFD445F01005BC
:100B2000ECE7E90601D46FF000476C280AD04C28A6
:100B300014D0682815D06A280DD074281CD07A28C3
:100B40001AD01DE062690121019890476C2802D0FB
:100B500045F0040514E045F002050DE045F02005E0
:100B60000AE06269012101989047682802D045F0A7
:100B7000080505E045F40065626901210198904788
:100B8000C4E9015765283DD019DC582879D00CDC20
:100B9000452837D004DC252826D0412831D131E042
:100BA00046282FD047282CD12CE05B287FD0612805
:100BB00028D063287BD0642823D159E0CFE06F2868
:100BC00047D008DC66281DD067281BD0692821D0B3
:100BD0006E2816D127E0702844D0732867D0752876
:100BE00046D078280DD14CE0A1690B98884705467E
:100BF00025283FF469AFE1690B9888476D1C3FF4E5
:100C00006AAFB2E023466A466FF001000B99AFF37A
:100C100000809DE045F040006060A80723464FF04B
:100C2000000235D43DE0206800F104012160006835
:100C3000290501D506701DE7290701D5068019E7AA
:100C4000A90704D54FEAE671C0E9006112E7066022
:100C500010E745F040006060A80723464FF0080207
:100C600016D41EE040F60E0125EA0100606016E091
:100C700045F040006060A80723464FF00A0207D401
:100C80000FE045F040006060A80708D52346102219
:100C90006FF001000B99AFF3008059E007E02346A5
:100CA00010226FF001000B99FFF702FB50E04FF0AC
:100CB00000094F464B46632802D05B2806D040E02F
:100CC000E80601D40120A06001273AE06269012111
:100CD000019890475E2805D14FF0010962694946A5
:100CE00001989047216939B900210B46524642F8D4
:100CF0002130491C0829FADBB0B3216969B9C11751
:100D000000EBD1614B110AEB830221F01F01411A64
:100D10000120136888400343136062690121019830
:100D200090475D28E8D1B9F1000F09D00020514665
:100D300051F82020D24341F82020401C0828F7DB3E
:100D400002AB224600976FF001000B99AFF30080D1
:100D500000280CDA401C08D1BBF1000F05D04FF081
:100D6000FF300DB0BDE8F08FFFE74046F9E7E90737
:100D700001D108F1010806444FF0000B7AE60000AB
:100D8000CCCCCC0C0EB5C10F80EAE0700844CA0789
:100D9000002140F233438DE80E000A460B46FFF770
:100DA00074FD03B000BD70B5C1F30A5201F00045F7
:100DB0000024C1F3130140F2FF3341F480119A4241
:100DC00001DA002070BD40F233439A42A2F233426E
:100DD00003DC5242FFF7E7FC00E090402C43F1D0E7
:100DE000404270BD7F2801D9002208E0064A02EB8C
:100DF0005002C007127800D1120902F00F02012040
:100E000090400840704700003896000870B501EB2C
:100E1000020410F8015B15F0070301D110F8013B43
:100E20002A1106D110F8012B03E010F8016B01F82C
:100E3000016B5B1EF9D12B0705D40023521E0FD482
:100E400001F8013BFAE710F8013B02F10202A1EBC5
:100E5000030303E013F8015B01F8015B521EF9D5AF
:100E6000A142D6D3002070BD08B5262000904020B6
:100E70008849087000228101874801F09BFD1420F9
:100E800001F084FC642301228249844803F03CF988
:100E9000642301226946814803F036F901221103D7
:100EA0007D4801F087FD142001F070FC0C200090BB
:100EB00041207849087000224FF48051764801F0B3
:100EC00079FD142001F062FC64230122714973480A
:100ED00003F01AF9642301226946704803F014F9FB
:100EE000012211036C4801F065FD142001F04EFC55
:100EF0002620009042206749087000224FF480515C
:100F0000654801F057FD142001F040FC64230122E4
:100F10006049624803F0F8F86423012269465F489B
:100F200003F0F2F8012211035B4801F043FD1420A5
:100F300001F02CFC03200090432056490870002249
:100F40004FF48051544801F035FD142001F01EFC8F
:100F5000642301224F49514803F0D6F8642301224B
:100F600069464E4803F0D0F8012211034A4801F0C7
:100F700021FD142001F00AFCFE2000904720454985
:100F8000087000224FF48051434801F013FD1420F3
:100F900001F0FCFB642301223E49404803F0B4F811
:100FA0006423012269463D4803F0AEF80122110393
:100FB000394801F0FFFC142001F0E8FB11200090FB
:100FC0007E203449087000224FF48051324801F0ED
:100FD000F1FC142001F0DAFB642301222D492F4893
:100FE00003F092F86423012269462C4803F08CF840
:100FF00001221103284801F0DDFC142001F0C6FB9A
:10100000152000907E202349087000224FF4805163
:10101000214801F0CFFC142001F0B8FB6423012229
:101020001C491E4803F070F86423012269461B48DE
:1010300003F06AF801221103174801F0BBFC1420E9
:1010400001F0A4FB83201349087000224FF4805163
:10105000114801F0AFFC142001F098FB6423012239
:101060000C490E4803F050F8642301220C490B4848
:1010700002F098FF01221103074801F09BFC1420A5
:1010800001F084FB06480078142802D105A008F07E
:1010900047F908BD2400002000040240E8010020B8
:1010A0000000002073656E736F7230206973204EEC
:1010B0006F726D616C200D0A0000000008B52620DB
:1010C000009040208849087000224101874801F0C3
:1010D00071FC142001F05AFB6423012282498448E8
:1010E00003F012F8642301226946814803F00CF8EA
:1010F0000122D1027D4801F05DFC142001F046FB85
:101100000C20009041207849087000224FF40061C3
:10111000764801F04FFC142001F038FB64230122D3
:101120007149734802F0F0FF642301226946704858
:1011300002F0EAFF0122D1026C4801F03BFC1420CE
:1011400001F024FB2620009042206749087000220D
:101150004FF40061654801F02DFC142001F016FBEE
:10116000642301226049624802F0CEFF6423012219
:1011700069465F4802F0C8FF0122D1025B4801F0D6
:1011800019FC142001F002FB032000904320564973
:10119000087000224FF40061544801F00BFC142049
:1011A00001F0F4FA642301224F49514802F0ACFFE8
:1011B0006423012269464E4802F0A6FF0122D102B3
:1011C0004A4801F0F7FB142001F0E0FAFE200090FD
:1011D00047204549087000224FF40061434801F060
:1011E000E9FB142001F0D2FA642301223E49404871
:1011F00002F08AFF6423012269463D4802F084FF21
:101200000122D102394801F0D5FB142001F0BEFAC9
:10121000112000907E203449087000224FF40061B4
:10122000324801F0C7FB142001F0B0FA6423012218
:101230002D492F4802F068FF6423012269462C489B
:1012400002F062FF0122D102284801F0B3FB142012
:1012500001F09CFA152000907E202349087000229E
:101260004FF40061214801F0A5FB142001F08EFA33
:10127000642301221C491E4802F046FF6423012218
:1012800069461B4802F040FF0122D102174801F0D5
:1012900091FB142001F07AFA832013490870002290
:1012A0004FF40061114801F085FB142001F06EFA43
:1012B000642301220C490E4802F026FF6423012218
:1012C0000C490B4802F06EFE0122D102074801F0E2
:1012D00071FB142001F05AFA06480078142802D154
:1012E00005A008F01DF808BD2400002000040240FD
:1012F000E80100200000002073656E736F723120DA
:101300006973204E6F726D616C200D0A0000000041
:1013100010B500224FF480510C4801F04BFB012026
:1013200001F034FA92200A49087064230122094826
:1013300002F0EAFE64230C220749064802F032FE5E
:1013400001221103014801F035FB10BD00040240E9
:1013500024000020E8010020D001002010B5002268
:101360004FF400610C4801F025FB012001F00EFA5A
:1013700092200A49087064230122094802F0C4FE41
:1013800064230C220749064802F00CFE0122D10218
:10139000014801F00FFB10BD0004024024000020B2
:1013A000E8010020DC01002010B580201149087000
:1013B00000224101104801F0FDFA142001F0E6F985
:1013C000642301220B490D4802F09EFE6423012292
:1013D0000B490A4802F0E6FD01221103064801F01C
:1013E000E9FA142001F0D2F90548017805A007F0C8
:1013F00097FF10BD2400002000040240E8010020F7
:10140000000000206964303D253032780D0A00006C
:1014100010B580201149087000220101104801F028
:10142000C9FA142001F0B2F9642301220B490D48D6
:1014300002F06AFE642301220B490A4802F0B2FD61
:101440000122D102064801F0B5FA142001F09EF9FC
:101450000548017805A007F063FF10BD24000020B7
:1014600000040240E8010020000000206964313DD2
:10147000253032780D0A000000B589B013480068A5
:101480004FF47A71B1FBF0F011490968114A126802
:10149000891A884217D80E4800680E490860FFF77D
:1014A00037FFFFF75BFF0C4A07CA01AB07C30B4AC4
:1014B000D2E900109268CDE905020491182101A833
:1014C00000F054F800BF09B000BD00000400002087
:1014D000A800002020000020D0010020DC01002016
:1014E00000BFFEE70346042B15D007DC7BB1012BC0
:1014F0000ED0022B0DD0032B12D10BE0202B0BD0E2
:10150000212B0AD0222B09D0232B09D107E008E098
:1015100007E006E005E004E003E002E001E000E0AF
:1015200000BF00BF002070470020704710B50022A8
:101530000449054804F0F5FD0449034804F0EAFDB8
:10154000002010BDC424002020140020C41C002052
:1015500070B504460D462146034804F0DBFD024801
:1015600004F0B4FD002070BD201400202DE9F041EE
:1015700004460D4600260A48D0F89072D7F81402A7
:1015800010B10120BDE8F0812A462146044804F04C
:10159000C8FD034804F049FE06463046F2E7000065
:1015A0002014002010B52DED108B8AB0D74800789C
:1015B000012878D10021D648D64A127881540246B3
:1015C000D4480178D4A007F0ABFE0020CF490870C2
:1015D0004FF48062CE49D34803F010FBCC488078AA
:1015E000562871D01BDC45286FD00BDCA0F13F00E2
:1015F00006286BD2DFE810F02C006A000801A60272
:10160000CE025003532878D004DC462876D04828F0
:101610005CD1F2E0542872D05528F9D1ABE36428AC
:101620006ED00CDC61286ED004DC58286AD05928B2
:10163000EED1FDE3622874D06328E9D17AE0652811
:101640006CD066286BD067286AD07128E0D1F0E3AF
:10165000B5A007F065FEBBA007F062FEBCA007F0D6
:101660005FFEB1A007F05CFEBDA007F059FEC0A070
:1016700007F056FEC2A007F053FEC5A007F050FECB
:10168000C7A007F04DFEC9A007F04AFECBA007F0A7
:1016900047FEA5A007F044FECDA007F041FED0A074
:1016A00007F03EFE00E0FCE3D1A007F039FED4A035
:1016B00007F036FED6A007F033FED9A007F030FEC3
:1016C000DBA007F02DFE02E060E30DE3EAE3DDA01E
:1016D00007F026FEE5A007F023FEEBA007F020FEB2
:1016E000EEA007F01DFEF2A007F01AFEF9A007F029
:1016F00017FE8DA007F014FE4BE205E3FCE22FE39A
:1017000022E000E04DE340F6FF70FB490860012253
:101710008021FA4801F04EF93BE202E01DE021E0B1
:1017200025E00020F449086001228021F34801F0FF
:1017300041F92EE240F6FF70F14948610122202173
:10174000EE4801F037F924E20020ED49486101221A
:101750002021EA4801F02EF91BE2FFF725FEFFF7F2
:1017600057FE16E2FFF780FBFFF7A8FC11E2FFF738
:10177000CFFDE448C07AE3498A7A497AE14B1B7A83
:10178000CDE90531CDE90720DE48C2798079DD4910
:101790004979DC4B1B79CDE90131CDE90302D94808
:1017A000C0780090D748837842780178D64807F00F
:1017B000B7FDFFF7D3FDD548C27A807AD349497A7D
:1017C000D24B1B7ACDE90531CDE90702CF48C2796A
:1017D0008079CE494979CD4B1B79CDE90131CDE9ED
:1017E0000302CA48C0780090C848837842780178DC
:1017F000C5484C3007F094FDCBE1C54802F0E5FE4A
:10180000C44802F0E2FEC4E1002473E02046FEF783
:101810007FFF41EC100BB0EE40EAF0EE60EABE480C
:101820000088FEF775FF41EC100B8DED080B9DED68
:10183000080B53EC102B9FEDB90B51EC100BFEF77E
:10184000F8FE41EC100BB0EE40FAF0EE60FA53EC0B
:101850001E2B51EC1F0BFEF77AFE41EC100BB0EE85
:1018600040DAF0EE60DA9FEDAF0B53EC102B51EC49
:101870001D0BFEF76CFE41EC100BB0EE40CAF0EE13
:1018800060CA9FEDAA0B53EC102B51EC1C0BFEF71A
:10189000D0FE41EC100BB0EE40BAF0EE60BA06F0AC
:1018A000E7FBB0EE40AAF0EE60AA9FEDA20B53EC6E
:1018B000102B51EC1A0BFEF74AFE41EC100BB0EE68
:1018C000409AF0EE609A9FED9B0B53EC102B51EC7D
:1018D000190BFEF795FD41EC100BB0EE408AF0EECF
:1018E000608A51EC180BFEF720FF944921F8140090
:1018F000601C84B288480088844287DB9048006876
:1019000000F032FC824802F04BFE8FE30200002020
:1019100020040020010000207265763A25643A25F3
:10192000730D0A00C00200202D2D2D2D2D2D2D2DE3
:101930002D2D2D2D2D2D2D2D2D2D2D2D2D2D0D0A1A
:10194000000000003F2D2D68656C700D0A0000003E
:10195000717C512D2D72657365740D0A00000000B5
:10196000612D2D6770696F6420307866660D0A00FE
:10197000622D2D6770696F6420307830300D0A0059
:10198000632D2D6770696F6520307866660D0A00DB
:10199000642D2D6770696F6520307830300D0A0036
:1019A000652D2D424D492049440D0A00662D2D42DA
:1019B0004D4920636F6E6669670D0A00652D2D42E3
:1019C0004D4920676574646174610D0A0000000070
:1019D000412D2D6368302073696E0D0A00000000F0
:1019E000422D2D636830207371756172650D0A0098
:1019F000432D2D6368312073696E0D0A00000000CD
:101A0000442D2D636831207371756172650D0A0074
:101A1000452D2D656E61626C65206368300D0A008E
:101A2000462D2D656E61626C65206368310D0A007C
:101A3000482D2D64697361626C65207761766573EA
:101A40000D0A0000532D2D2A2E532E6368315F6638
:101A50007265712E6368325F667265712E6275669B
:101A600066657253697A650D0A000000542D2D2AAF
:101A70002E542E6672657154284D415832303068AC
:101A80007A290D0A00000000552D2D2A2E552E739F
:101A9000656C656374300D0A00000000562D2D2A18
:101AA0002E562E73656C656374310D0A00000000BC
:101AB000582D2D2A2E582E73656C656374302F7344
:101AC000656C65637430302E64617461287261776F
:101AD000290D0A00592D2D2A2E592E73656C656328
:101AE00074312F73656C65637431312E6461746178
:101AF00028726177290D0A00140C02400000024090
:101B000000100240D001002060940008DC01002099
:101B100040020020800200201C0000200000000085
:101B2000008076404AD8124DFB2109400000000099
:101B300000806640000000000000A040200C002053
:101B400008000020002406E040F6FF70F94921F863
:101B50001400601C84B2F849088800EBD071B4EB23
:101B6000610FF1DBF449088800EBD0714C1005E0FF
:101B70000020F04921F81400601C84B2EE4800886F
:101B80008442F5DBED48006800F0EEFAEC4802F024
:101B900007FD4BE2002473E02046FEF7B9FD41EC5F
:101BA000100BB0EE40DAF0EE60DAE3480088FEF7A2
:101BB000AFFD41EC100BB0EE40FAF0EE60FA53ECE2
:101BC0001F2B1FED2A0B51EC100BFEF732FD41ECE1
:101BD000100BB0EE40EAF0EE60EA53EC1D2B51EC36
:101BE0001E0BFEF7B4FC41EC100BB0EE40CAF0EE59
:101BF00060CA1FED340B53EC102B51EC1C0BFEF79D
:101C0000A6FC41EC100BB0EE40BAF0EE60BA1FED4E
:101C1000390B53EC102B51EC1B0BFEF70AFD41EC7A
:101C2000100BB0EE40AAF0EE60AA06F021FAB0EE7A
:101C3000409AF0EE609A1FED410B53EC102B51ECE3
:101C4000190BFEF784FC41EC100BB0EE408AF0EE6D
:101C5000608A1FED480B53EC102B51EC180BFEF76C
:101C6000CFFB41EC100B8DED080B9DED080B51ECFB
:101C7000100BFEF75AFDB34921F81400601C84B222
:101C8000AD480088844287DBAF48006800F0C6FAA0
:101C9000AE4802F085FCC9E1002406E040F6FF7082
:101CA000A84921F81400601C84B2A349088800EBFD
:101CB000D071B4EB610FF1DB9F49088800EBD07164
:101CC0004C1005E000209F4921F81400601C84B2EC
:101CD000994800888442F5DB9B48006800F09EFA32
:101CE0009A4802F05DFCA1E19448006800F03CFADB
:101CF000934802F055FC99E19348006800F08EFA91
:101D0000924802F04DFC91E18B488F4B8B4A90A199
:101D100000909348FEF7B0FA874800888749096821
:101D200048439049884207D283480088834909681C
:101D300048438C49884209D34FF47A707F49086040
:101D4000814908604FF480707B4908807A48038895
:101D50007D4802687948016883A007F0E1FA65E1EF
:101D60008B4A8CA17E48FEF787FA894801688BA0D0
:101D700007F0D6FA5AE18D4A8DA17948FEF77CFA30
:101D80008A4801788CA007F0CBFA4FE18E4A88A1EF
:101D90007348FEF771FA8C4801788CA007F0C0FAFE
:101DA00044E16F48007950BB002411E0062000EBAD
:101DB00044006B49095C062000EB4400401C684A63
:101DC000105C01EB00205B4921F81400601CC4B2D8
:101DD000594800888442E9DB80A007F0A1FA00247A
:101DE00008E0544830F8142021467FA007F098FA04
:101DF000601CC4B2504800888442F2DB30E058488E
:101E0000007901282CD1002411E0062000EB4400C9
:101E10005349095C062000EB4400401C504A105C0A
:101E200001EB0020734921F81400601CC4B201E0EA
:101E300017E075E0404800888442E6DB6EA007F0BA
:101E40006FFA002408E06B4830F81420214666A0A1
:101E500007F066FA601CC4B2374800888442F2DB9F
:101E6000E4E03F48007960BB002411E0062000EB6D
:101E700044003B49095C062000EB4400401C384A02
:101E8000105C01EB00202F4921F81400601CC4B243
:101E9000294800888442E9DB5BA007F041FA00246E
:101EA0000AE0C4E0C1E0274830F8142021464EA0E3
:101EB00007F036FA601CC4B21F4800888442F2DB87
:101EC0002DE027480079012829D1002411E00620BF
:101ED00000EB44002249095C062000EB4400401C52
:101EE0001F4A105C01EB00204A4921F81400601CD5
:101EF000C4B2114800888442E9DB47A007F010FA19
:101F0000002408E0434830F81420214636A007F0AA
:101F100007FA601CC4B2084800888442F2DB85E0FE
:101F20000F48807851287FD10D48C07871287BD127
:101F30007CE079E0200C00201C000020080000203C
:101F400040020020200E00200C0000208002002013
:101F50002A2E532E25642E25642E256400000000B1
:101F60002004002000AC0D000D0A66726571303D42
:101F700025642C66726571313D25642C6275666638
:101F800065725F53495A453D25640D0A0000000003
:101F9000040000202A2E542E256400000D0A6672CB
:101FA0006571543D25640D0A000000003A000020D0
:101FB0002A2E552E256400000D0A73656C65637426
:101FC000303D25640D0A00003B0000200D0A7365BA
:101FD0006C656374313D25640D0A000064617461B1
:101FE0005F706F6C6C303D005B25645D3D25640D5A
:101FF0000A00000020100020646174615F706F6C43
:102000006C30303D00000000646174615F706F6C83
:102010006C313D0020120020646174615F706F6C50
:102020006C31313D0000000000BF00BF00BF0AB0AE
:10203000BDEC108B10BD000010B5024800F0CAF9CD
:1020400010BD00000003002010B5024800F0C2F9E6
:1020500010BD0000600300200146087810381823E6
:10206000B0FBF3F20848805CC865032A05D908680C
:102070006FF30900001D886503E008686FF309002D
:102080008865886D70470000F594000801460020BF
:102090008A6A8B69CBB932B1012A0DD0022A03D0EA
:1020A000032A10D10EE000BFCB6A03F08073B3F1B6
:1020B000807F00D1012007E0CB6AB3F1C07F00D15F
:1020C000012001E000E000BF34E08B69B3F5005F60
:1020D0001AD132B1012A07D0022A03D0032A11D122
:1020E0000AE000BF01200EE0CB6A03F08073B3F179
:1020F000807F00D1012006E0CB6AB3F1C07F00D120
:10210000012000E000BF15E032B1012A05D0022A0B
:1021100004D0032A0CD103E000BF00BF012008E077
:10212000CB6A03F08073B3F1807F00D1012000E01F
:1021300000BF00BF704730B50468246824F48024D1
:1021400005682C60046863608468402C04D10468CE
:10215000A2600468E16003E00468A1600468E260D2
:1021600030BD7047704700002DE9F0412DED048B24
:1021700004462549098804FB01F0FEF7C9FA41EC41
:10218000100BB0EE409AF0EE609A53EC192B9FEDD5
:102190001F0B51EC100BFEF74CFA41EC100BB0EE9C
:1021A000408AF0EE608A51EC180BFEF7BEFA074643
:1021B0003846FEF7ADFA41EC100BB0EE409AF0EE67
:1021C000609A05F0C1FFB0EE408AF0EE608A51ECF3
:1021D000180BFEF7AAFA054606460E480E49086097
:1021E000681E486000210C488160701E0A49C86062
:1021F00000210948816102F089F908B1FFF7B2FFB7
:10220000BDEC048BBDE8F0811C0000200000000044
:10221000F406944100100040400200202DE9F041F6
:102220002DED048B04462549098804FB01F0FEF7D7
:102230006FFA41EC100BB0EE409AF0EE609A53EC5E
:10224000192B9FED1F0B51EC100BFEF7F2F941EC2F
:10225000100BB0EE408AF0EE608A51EC180BFEF7DE
:1022600064FA07463846FEF753FA41EC100BB0EE1D
:10227000409AF0EE609A05F067FFB0EE408AF0EE0B
:10228000608A51EC180BFEF750FA054606460E48D8
:102290000E490860681E486000210C488160701E6D
:1022A0000A49C86000210948816102F02FF908B18C
:1022B000FFF758FFBDEC048BBDE8F0811C00002047
:1022C00000000000F4069441001400408002002049
:1022D00070B50A480468001D0568001D066834448E
:1022E00054B108220649204602F05BFD042204494D
:1022F0001031284602F055FD70BD0000107AFF1F16
:102300007200002070B50446A56D00F059FB06462A
:1023100094F83500022808D08020606500BF0020B6
:1023200084F8340000BF012070BD2068006820F0F0
:102330001600216808602068406920F0800021684C
:102340004861206C08B9A06C28B12068006820F0B2
:102350000800216808602068006820F001002168FA
:1023600008600FE000F02CFB801B05280AD9202014
:10237000606500BF002084F8340000BF032084F8AB
:102380003500D1E72068006810F0010FEAD194F819
:102390005C103F208840A86000BF002084F8340013
:1023A00000BF012084F835000020BDE7014691F808
:1023B0003500022803D080204865012070470520A1
:1023C00081F835000868006820F001000A68106094
:1023D0000020F3E7F8B50446002000908A48006822
:1023E0004FF41651B0FBF1F7A56D2E6894F85C1010
:1023F00008208840304213D02068006810F0040F95
:102400000ED02068006820F004002168086094F86D
:102410005C1008208840A860606D40F00100606595
:1024200094F85C100120884030420DD0206840694B
:1024300010F0800F08D094F85C1001208840A8604C
:10244000606D40F00200606594F85C1004208840E4
:1024500030420DD02068006810F0020F08D094F8C8
:102460005C1004208840A860606D40F00400606546
:1024700094F85C101020884030422FD0206800680B
:1024800010F0080F2AD094F85C1010208840A86043
:102490002068006810F4802F10D02068006810F4C5
:1024A000002F05D1206CC8B12046216C884715E06B
:1024B000A06C98B12046A16C88470FE020680068A6
:1024C00010F4807F05D12068006820F008002168A2
:1024D0000860206C10B12046216C884794F85C108D
:1024E00020208840304264D02068006810F0100F2F
:1024F0005FD094F85C1020208840A86094F83500E4
:10250000052828D12068006820F01600216808609E
:102510002068406920F0800021684861206C08B97B
:10252000A06C28B12068006820F0080021680860CD
:1025300094F85C103F208840A86000BF002084F819
:10254000340000BF012084F83500206D10B1204612
:10255000216D8847F8BD2068006810F4802F10D0E6
:102560002068006810F4002F05D1606C10B120467F
:10257000616C88471DE0E06BD8B12046E16B88476D
:1025800017E02068006810F4807F0DD12068006893
:1025900020F010002168086000BF002084F834009B
:1025A00000BF012084F83500E06B10B12046E16BDC
:1025B0008847606D30B3606D10F0010F1DD00520AD
:1025C00084F835002068006820F001002168086068
:1025D00000BF0098401C0090B84200D904E0206879
:1025E000006810F0010FF4D100BF00BF002084F894
:1025F000340000BF012084F83500E06C10B12046A3
:10260000E16C884700BFA5E7AC0000202DE9F04150
:102610000446002500F0D4F9074614B90120BDE8AE
:10262000F081606A00B100BF00BF002084F8340070
:1026300000BF022084F835002068006820F0010007
:10264000216808600AE000F0BBF9C01B052805D925
:1026500020206065032084F83500E0E720680068EA
:1026600010F0010FEFD12068056822480540D4E939
:1026700001010843E168084321690843616908438F
:10268000A1690843E1690843216A08430543606A78
:10269000042803D1D4E90B010843054320680560F1
:1026A0002068456925F00705606A0543606A0428CB
:1026B0000DD1A06A0543E06A48B12046FFF7E6FC69
:1026C00028B140206065012084F83500A7E7206824
:1026D00045612046FFF7C0FC064694F85C103F2099
:1026E0008840B06000206065012084F8350000203B
:1026F00095E700003F8010F02DE9F04704460D46B5
:1027000016461F464FF00008D4F8589000BF94F8C2
:102710003400012802D10220BDE8F087012084F8AE
:10272000340000BF94F83500012825D1022084F838
:102730003500002060653B46324629462046FFF7BB
:10274000FAFC94F85C103F208840C9F80800206823
:10275000006840F0160021680860206C28B12068ED
:10276000006840F00800216808602068006840F0B8
:1027700001002168086006E000BF002084F83400F2
:1027800000BF4FF002084046C6E7000070B504469F
:1027900000F016F906462546681C02D00448007869
:1027A000054400BF00F00CF9801BA842FAD370BDAD
:1027B000A4000020F8B502460B46002500240020A6
:1027C0000021DCE0012606FA01F51E6806EA050490
:1027D000AC4273D15E68012E08D05E68022E05D02F
:1027E0005E68112E02D05E68122E13D190684F00E1
:1027F0000326BE40B0434F00DE68BE4030439060C9
:10280000506801268E40B0431E79C6F300168E40F4
:1028100030435060D0684F000326BE40B0434F00A5
:102820009E68BE403043D0605E68022E02D05E6873
:10283000122E13D1CF0802F1200656F827004E07BA
:10284000F70E0F26BE40B0434F07FF0E1E69BE4075
:102850003043CF0802F1200646F8270010684F00E9
:102860000326BE40B0431E7906F003064F00BE406B
:10287000304310605E6806F08056B6F1805F7DD10F
:1028800000BF00260096404E366846F480463E4F14
:102890003E603E46366806F48046009600BF00BFA4
:1028A0003A4E8F0856F827008E07370F0F26BE4086
:1028B000B043374EB24202D1002624E05EE0354EEE
:1028C000B24201D101261EE0334EB24201D10226AE
:1028D00019E0324EB24201D1032614E0304EB2422A
:1028E00001D104260FE02F4EB24201D105260AE0A5
:1028F0002D4EB24201D1062605E02C4EB24201D146
:10290000072600E008268F073F0FBE4030431F4ECA
:102910008F0846F82700264E3068A0435E6806F40C
:102920008036B6F5803F00D12043214E3060361D01
:102930003068A0435E6806F40036B6F5003F00D16B
:1029400020431B4E361D3060361D3068A0435E6844
:1029500006F48016B6F5801F00D12043144E0836C9
:102960003060361D3068A0435E6806F40016B6F588
:10297000001F00D120430E4E0C363060491C102938
:10298000FFF420AFF8BD0000443802400838014091
:10299000000002400004024000080240000C024017
:1029A000001002400014024000180240001C0240C7
:1029B000003C01400AB1816101E00B048361704772
:1029C0000148006870470000A80000200348006824
:1029D000034909780844014908607047A8000020AD
:1029E000A400002010B50D48006840F400700B49A9
:1029F00008600846006840F4806008600846006887
:102A000040F480700860032000F0A4F8002000F07B
:102A100007F800F02BF8002010BD0000003C024039
:102A200070B504460E4800784FF47A71B1FBF0F0AF
:102A30000C490968B1FBF0F5284601F04BFD08B1DF
:102A4000012070BD102C07D200222146501E00F03C
:102A500043F80548046001E00120F2E70020F0E7B8
:102A6000A4000020AC000020A000002008B500BF9A
:102A7000002000900E48006840F480400C49086037
:102A80000846006800F48040009000BF00BF00BF0F
:102A900000200090081F006840F08050091F086067
:102AA0000846006800F08050009000BF00BF08BDDD
:102AB0004438024010B50146084600280ADB00F001
:102AC0001F0301229A4043094FF0E02404EB8303E3
:102AD000C3F8002100BF10BD2DE9F05F80460D4610
:102AE0001646002705F0A6FA074639462A46334619
:102AF00001F00700C0F1070ABAF1040F02D94FF044
:102B0000040A01E0C0F1070AD14600F1040ABAF153
:102B1000070F02D24FF0000A01E0A0F1030AD446E9
:102B20004FF0010A0AFA09FAAAF1010A0AEA020AAE
:102B30000AFA0CFA4FF0010B0BFA0CFBABF1010B8C
:102B40000BEA030B4AEA0B042146404605F07AFAE9
:102B5000BDE8F09F00BF00F00702064B19684FF672
:102B6000FF031940044B0B4343EA0221014B196058
:102B700000BF70470CED00E00000FA057047024608
:102B80001068416200207047F0B50346154618688A
:102B9000446A21B944EA05401E68B06219E0186829
:102BA000806A04EB1044002208E0186800F5827087
:102BB00050F8220004EB1044501CC2B2481E904250
:102BC000F3D844EA0547186800F582704E1E40F8B5
:102BD00026700020F0BD10B5044640F204410859AB
:102BE00003F0B4FE10BD70B504460D46C5EBC50339
:102BF00004F13C0101EB8301CA6840F20441085929
:102C0000294603F0D0FD70BD70B504460D46C5EBF6
:102C1000C50304F5FE7101EB8301CA6840F204416B
:102C20000859294603F03FFE70BD10B5044640F236
:102C30000441085903F08DFE10BD70B504460E46E0
:102C400006F0800080280AD106F00F00C0EBC0011A
:102C500004F13C0000EB81050120687009E006F0FA
:102C60000F00C0EBC00104F5FE7000EB81050020F1
:102C7000687006F00F00287000BF94F8BC030128AC
:102C800001D1022070BD012084F8BC0300BF294699
:102C9000206804F055FB00BF002084F8BC0300BF8F
:102CA00000BFEFE770B504460E4606F00F006168FE
:102CB000884201D9012070BD06F0800080280AD129
:102CC00006F00F00C0EBC00104F13C0000EB8105F1
:102CD0000120687009E006F00F00C0EBC00104F5A8
:102CE000FE7000EB8105002068700020A87006F0DF
:102CF0000F00287000BF94F8BC03012801D1022006
:102D0000D9E7012084F8BC0300BF2946206804F0FD
:102D1000C1FD00BF002084F8BC0300BF00BFCAE7AC
:102D2000024601F00F00C0EBC00302F5FE7000EB9D
:102D30008300806970472DE9F04705460E469046AE
:102D40001F464FF0000906F0800080280AD106F0E7
:102D50000F00C0EBC00105F13C0000EB8104012035
:102D6000607009E006F00F00C0EBC00105F5FE70D1
:102D700000EB81040020607006F00F002070C4F8A2
:102D80000880E770607808B12078E080022F01D1D8
:102D90000020207100BF95F8BC03012802D1022059
:102DA000BDE8F087012085F8BC0300BF21462868F4
:102DB00004F0D6F900BF002085F8BC0300BF4846E8
:102DC000EEE72DE9F04104460E461746984606F018
:102DD0000F00C0EBC00104F5FE7000EB8105EF6051
:102DE000C5F814800020A861687006F00F002870F4
:102DF0002069012800D12F6116F00F0F05D1227C28
:102E00002946206804F022FC04E0227C2946206840
:102E100004F0D4FD0020BDE8F08170B504460D46F5
:102E200005F00F006168884201D9012070BD05F0EE
:102E3000800080280AD105F00F00C0EBC00104F12A
:102E40003C0000EB81060120707007E0C5EBC50176
:102E500004F5FE7000EB8106002070700120B07058
:102E600005F00F00307000BF94F8BC03012801D1B9
:102E70000220DBE7012084F8BC0300BF3146206854
:102E800004F04FFD15F00F0F05D1217C04F5717290
:102E9000206804F0C7FC00BF002084F8BC0300BF1A
:102EA00000BFC3E72DE9F04104460E461746984699
:102EB00006F00F00C0EBC00104F13C0000EB8105FF
:102EC000EF60C5F814800020A8610120687006F04A
:102ED0000F0028702069012800D12F6116F00F0F14
:102EE00005D1227C2946206804F0B0FB04E0227C56
:102EF0002946206804F062FD0020BDE8F0812DE93C
:102F0000FE4F044620680290029E206804F041FFB4
:102F100000287ED1206804F07BFF08B9BDE8FE8F51
:102F2000206804F075FF00F00200022805D1206837
:102F3000406900F0020021684861206804F068FFE1
:102F400000F40020B0F5002F57D10025206804F0D0
:102F50002FFF82464EE01AF0010F48D0E9B22068F8
:102F600004F049FF804618F0010F09D0012106F551
:102F7000306000EB451081602946204602F04CF994
:102F800008F00800082809D12946204602F0FEF87A
:102F9000082106F5306000EB4510816008F0100054
:102FA000102805D1102106F5306000EB4510816036
:102FB00008F0200020280ED12069012805D104F551
:102FC00071720121206804F02DFC202106F530608B
:102FD00000EB4510816008F40050B0F5005F06D1A9
:102FE0004FF4005106F5306000EB451081606D1C18
:102FF0004FEA5A0ABAF1000FADD1206804F008FF79
:1030000000F48020B0F5802F7DD1206804F0C6FE4A
:1030100000E00FE28246002583E01AF0010F7DD028
:10302000E9B2206804F0CEFE804618F0010F42D0CD
:1030300005F00F0101208840019040F634008159CD
:10304000019821EA000040F634018851012106F57B
:10305000106000EB451081602069012815D1C5EB97
:10306000C50104F13C0000EB8100C5EBC502C1685D
:1030700004F13C0000EB820080680144C5EBC5020E
:1030800004F13C0000EB8200C160E9B22046FFF78A
:10309000AAFD206901280ED16DB9C5EBC50104F167
:1030A0003C0000EB8100406928B904F571720121F0
:1030B000206804F0B7FB08F00800082805D10821B3
:1030C00006F5106000EB4510816008F01000102834
:1030D00005D1102106F5106000EB4510816008F065
:1030E0004000402805D1402106F5106000EB451056
:1030F000816008F00200022808D1022106F5106064
:1031000000EB451001E010E008E0816008F080006D
:10311000802803D12946204602F03CF96D1C4FEA75
:103120005A0ABAF1000F7FF478AF206804F070FEFD
:1031300000F00040B0F1004F1CD140F6040080596F
:1031400020F0010140F60400815194F8F4030128B5
:1031500007D1002084F8F40300212046FFF70EFD7C
:1031600002E0204600F09EFA2068406900F000402E
:1031700021684861206804F04BFE00F40060B0F55F
:10318000006F0ED140F60800805910F0010F02D0F8
:10319000204600F0E1FA2068406900F400602168F0
:1031A0004861206804F034FE00F48050B0F5805F80
:1031B00074D140F60400805920F0010140F604006B
:1031C00081511021206804F0B9FD002726E04FF658
:1031D0007F3106F5106000EB4710816006F5106046
:1031E00000EB4710006820F4001106F5106000EBBA
:1031F000471001604FF67F3106F5306000EB471055
:10320000816006F5306000EB4710006820F4001183
:1032100006F5306000EB471001607F1C6068B84223
:10322000D5D840F61C00805940F0011140F61C0032
:103230008151206B70B1D6F8840840F00B01C6F8BC
:10324000841840F64400805940F00B0140F64400D9
:1032500081510FE040F61400805942F22B010843DF
:1032600040F614018851081F805940F00B014FF4BB
:10327000016081514FF40060805920F4FE614FF4E9
:1032800000608151217C04F57172206804F0CAFA53
:103290002068406900F4805021684861206804F08B
:1032A000B7FD00F40050B0F5005F17D1206803F0BF
:1032B000BDFF206804F05AFDE06000F029FB00909B
:1032C000227B2068009904F0F7FD204600F0D0F939
:1032D0002068406900F4005021684861206804F0CB
:1032E00097FD00F01000102846D12068806920F07A
:1032F0001000216888610298D0F8209009F00F0032
:10330000C0EBC00104F5FE7000EB810BC9F3434034
:1033100002281AD147F6F07019EA000F26D0C9F337
:103320000A12DBF80C10029804F077FDC9F30A11B9
:10333000DBF80C000844CBF80C00C9F30A11DBF8E9
:1033400018000844CBF8180010E0C9F343400628E1
:103350000CD1082204F57171029804F05EFDC9F3E6
:103360000A11DBF818000844CBF8180020688069BF
:1033700040F0100021688861206804F049FD00F0E9
:103380000800082808D1204600F094F92068406918
:1033900000F0080021684861206804F039FD00F45D
:1033A0008010B0F5801F0AD100252946204600F084
:1033B00043F82068406900F4801021684861206863
:1033C00004F026FD00F40010B0F5001F0AD100251E
:1033D0002946204600F03AF82068406900F40010C1
:1033E00021684861206804F013FD00F08040B0F1CE
:1033F000804F08D12046FFF7EEFB2068406900F0BF
:10340000804021684861206804F002FD00F004005B
:1034100004280FD12068D0F8049009F00400042893
:1034200002D12046FFF701FC2068406840EA09000D
:103430002168486000BF71E570B504460D4640F252
:1034400004410859294603F0EBFA70BD70B50446F3
:103450000D4640F204410859294603F0E4FA70BDD4
:1034600070B58AB0044614B901200AB070BD266850
:1034700094F8BD0328B9002084F8BC03204600F06E
:10348000A3F8032084F8BD03F06B10F4807F01D112
:1034900000212161206804F0D1F8282204F11001F4
:1034A0006846FCF7BEFE94E80F0003F0E3FE20B18F
:1034B000022084F8BD030120D7E70021206804F032
:1034C000BDFC002531E00121C5EBC50204F13C0043
:1034D00000EB82004170C5EBC50104F13C0000F82F
:1034E0002150C5EBC50100EB8100C5800021C5EB73
:1034F000C50204F13C0000EB8200C170C5EBC502BF
:1035000004F13C0000EB82008160C5EBC50204F1D0
:103510003C0000EB8200C160C5EBC50204F13C0039
:1035200000EB82004161681CC5B26068A842CAD83D
:1035300000252AE00021C5EBC50204F5FE7000EB72
:1035400082004170C5EBC50104F5FE7000F8215002
:103550000021C5EBC50200EB8200C170C5EBC502BE
:1035600004F5FE7000EB82008160C5EBC50204F536
:10357000FE7000EB8200C160C5EBC50204F5FE7071
:1035800000EB82004161681CC5B26068A842D1D8D6
:10359000282204F110016846FCF743FE94E80F006E
:1035A00003F050FF20B1022084F8BD0301205CE746
:1035B000002084F83800012084F8BD03206803F05F
:1035C00031FF002051E7000010B586B004461421F9
:1035D00001A8FCF73FFE2068B0F1A04F42D100BF28
:1035E000002000902048006840F001001E4908605B
:1035F0000846006800F00100009000BF00BF4FF4D3
:10360000C0500190022002900020039003200490FB
:103610000A20059001A91548FFF7CCF800BF124811
:10362000001D006840F080000F49091D086000BFC0
:10363000002000900C481430006840F480400A4993
:10364000143108600846006800F48040009000BF14
:1036500000BF00BF002211464320FFF73DFA432080
:10366000FFF728FA06B010BD3038024000000240D3
:1036700070B504460125E06808B9002506E0E06859
:10368000022801D1012501E0FEF76CFD40F2044162
:103690000859294603F040FA40F20441085903F062
:1036A000F5F970BD10B5044640F20441085903F025
:1036B0001BFA10BD10B5044640F20441085903F04E
:1036C0001AFA10BD70B504460D4600BF94F8BC034D
:1036D000012801D1022070BD012084F8BC0300BF85
:1036E00084F838502946206804F0C3FB00BF00204E
:1036F00084F8BC0300BF00BFEDE710B5044640F2FC
:103700000441085904F5717103F01DFA10BD70B53C
:103710000446256800BF94F8BC03012801D10220AB
:1037200070BD012084F8BC0300BFA06A012806D147
:10373000A069012803D0A86B40F48030A8632068FA
:1037400003F060FE206804F0DBFA00BF002084F87C
:10375000BC0300BF00BFE3E710B5044640F20441DC
:10376000085903F049FA2068D0F8000E40F0010132
:103770002068C0F8001E206A28B10348006840F0A5
:1037800006000149086010BD10ED00E070B5044668
:103790000D460CB9012070BD5848006800F00F00BC
:1037A000A84209D255490D700846006800F00F0084
:1037B000A84201D00120EEE7207800F002000228A4
:1037C0001DD1207800F00400042805D14C48006881
:1037D00040F4E0504A490860207800F008000828CA
:1037E00005D14748006840F46040454908604448B6
:1037F000006820F0F000A168084341490860207883
:1038000010F0010F3DD06068012807D13C4808380E
:103810000068C0F34040B8B90120BCE760680228E6
:1038200002D06068032807D1354808380068C0F323
:10383000406048B90120AEE7314808380068C0F35D
:10384000400008B90120A6E72D48006820F00300D9
:10385000616808432A490860FFF7B2F8064608E0A5
:10386000FFF7AEF8801B41F28831884201D903206E
:1038700091E72348006800F00C006168B0EB810F0D
:10388000EED11E48006800F00F00A84209D91B497C
:103890000D700846006800F00F00A84201D001201A
:1038A00079E7207800F00400042807D11448006864
:1038B00020F4E050E168084311490860207800F0E6
:1038C0000800082808D10E48006820F460402169EB
:1038D00040EAC1000A49086000F040F80849096858
:1038E000C1F30311074A515CC84007490860074803
:1038F0000068FFF795F800204DE70000003C02400B
:1039000008380240FD940008AC000020A000002010
:103910000148006870470000AC00002000B5FFF7C8
:10392000F7FF04490968C1F38221034A515CC8408A
:1039300000BD0000083802400D95000800B5FFF7F3
:10394000E7FF04490968C1F34231034A515CC840AA
:1039500000BD0000083802400D9500082DE9F04731
:10396000002400250026A1462548006810F00C0020
:1039700004D0042805D008283AD105E0DFF8849067
:1039800039E0DFF8849036E01D48001F006800F041
:103990003F041B48001F006810F4800F0FD01A4826
:1039A0001749091F0968C1F38811A0FB017001467E
:1039B000224600233846FCF703FC05460EE011487A
:1039C0000F49091F0968C1F38811A0FB0170014666
:1039D000224600233846FCF7F3FB05460848001F43
:1039E0000068C0F30140401C4600B5FBF6F902E058
:1039F000DFF8109000BF00BF4846BDE8F087000028
:103A0000083802400024F40000127A00F8B5044699
:103A10000CB90120F8BD207810F0010F74D0F948DE
:103A2000006800F00C0004280DD0F648006800F093
:103A30000C00082813D1F348001F006800F4800030
:103A4000B0F5800F0BD1EF4808380068C0F3404054
:103A5000002859D06068002856D10120DAE700BF5D
:103A60006068B0F5803F08D1E6480838006840F447
:103A70008030E449083908601EE06068B0F5A02F86
:103A80000DD1E0480838006840F48020DD4908394D
:103A900008600846006840F4803008600CE0D948AF
:103AA0000838006820F48030D64908390860084694
:103AB000006820F48020086000BF606890B1FEF7C5
:103AC0007FFF054606E0FEF77BFF401B642801D917
:103AD00003209FE7CB4808380068C0F34040002827
:103AE000F1D011E0FEF76CFF054606E0FEF768FF37
:103AF000401B642801D903208CE7C24808380068BD
:103B0000C0F340400028F1D1207800F002000228E4
:103B10005FD1BC48006810F00C0F0BD0B9480068AA
:103B200000F00C0008281CD1B648001F006810F4F3
:103B3000800F16D1B34808380068C0F3400020B1A8
:103B4000E068012801D0012064E7AE480838006829
:103B500020F0F800216940EAC100AA49083908604C
:103B600037E0E06800B30120A7490860FEF728FFAE
:103B7000054606E0FEF724FF401B022801D903207A
:103B800048E7A04808380068C0F340000028F1D09A
:103B90009C480838006820F0F800216940EAC1001C
:103BA00098490839086014E0002097490860FEF73A
:103BB00007FF054606E0FEF703FF401B022801D978
:103BC000032027E78F4808380068C0F3400000282A
:103BD000F1D1207800F0080008282CD16069A8B144
:103BE00001208A490860FEF7EBFE054606E0FEF775
:103BF000E7FE401B022801D903200BE781486C3007
:103C00000068C0F340000028F1D014E000207F4994
:103C10000860FEF7D5FE054606E0FEF7D1FE401B24
:103C2000022801D90320F5E676486C300068C0F31D
:103C300040000028F1D1207800F0040004286FD162
:103C4000002770483830006810F0805F12D100BF44
:103C5000002000906B483830006840F0805069497F
:103C6000383108600846006800F08050009000BFBE
:103C700000BF01276648006810F4807F15D16448B2
:103C8000006840F4807062490860FEF799FE0546BE
:103C900006E0FEF795FE401B022801D90320B9E695
:103CA0005B48006810F4807FF3D000BFA068012853
:103CB00008D154486830006840F00100514968312B
:103CC00008601DE0A06805280DD14E4868300068E6
:103CD00040F004004B49683108600846006840F035
:103CE000010008600CE047486830006820F00100DF
:103CF0004449683108600846006820F00400086004
:103D000000BFA068A8B1FEF75BFE054609E0FEF71C
:103D100057FE401B41F28831884202D9032079E6E0
:103D200026E0384868300068C0F340000028EED034
:103D300013E0FEF745FE054608E0FEF741FE401B96
:103D400041F28831884201D9032063E62D4868306A
:103D50000068C0F340000028EFD1012F07D12948A7
:103D60003830006820F0805026493831086000BFA4
:103D7000A069002845D02348006800F00C000828FE
:103D80005DD0A069022845D100201F490866FEF7D2
:103D900017FE054606E0FEF713FE401B022801D978
:103DA000032037E6174808380068C0F34060002851
:103DB000F1D1D4E907010843616A40EA8111012287
:103DC000A06AC2EB500041EA00412C20005D41EAAC
:103DD00000600C49091F086001200B490866FEF7C6
:103DE000EFFD054606E0FEF7EBFD401B022801D97A
:103DF00003200FE6034808380068C0F3406000283D
:103E0000F1D03FE00838024000004742800E4742B0
:103E10000070004000201C490866FEF7D1FD0546F1
:103E200006E0FEF7CDFD401B022801D90320F1E595
:103E300016480068C0F340600028F2D122E0A06973
:103E4000012800D1E6E511480830066806F4800133
:103E5000E069814214D106F03F01206A81420FD10E
:103E600047F6C0703040616A884209D106F440319B
:103E7000A06A814204D106F07061E06A814201D0FB
:103E80000120C7E50020C5E5000047420038024098
:103E900010B504460CB9012010BD606A00B900BF1E
:103EA0000021A16294F8510028B9002084F8500044
:103EB000204600F033F8022084F8510020680068A2
:103EC00020F0400021680860D4E901010843E1685E
:103ED00008432169084361690843218B01F400719B
:103EE0000843E1690843216A0843A16A084321683D
:103EF00008600421A06901EA1040616A0843216852
:103F000048602068C06920F400602168C861002012
:103F10006065012084F851000020BDE710B586B02F
:103F20000446142101A8FCF795F91B492068884232
:103F300030D100BF002000901848006840F4804055
:103F4000164908600846006800F48040009000BFF1
:103F500000BF00BF0020009010481038006840F0FB
:103F600002000E49103908600846006800F002009F
:103F7000009000BF00BF4FF460400190022002900B
:103F800000200390032004900520059001A9044817
:103F9000FEF710FC06B010BD00380040403802406B
:103FA000000402402DE9F8430446884616461D46A3
:103FB0004FF000096068B0F5827F0DD1A06858B954
:103FC000042084F85100334642464146204600957D
:103FD00000F06BF9BDE8F88300BF94F850000128A9
:103FE00001D10220F6E7012084F8500000BFFEF75F
:103FF000E7FC074694F85100012802D04FF002096F
:1040000078E0B8F1000F00D016B94FF0010971E067
:10401000042084F8510000206065C4F83880A68729
:10402000E6872063A086E08620646064A068B0F51F
:10403000004F05D12068006820F4804021680860A6
:104040002068006800F04000402805D02068006823
:1040500040F0400021680860E068F8B91AE0206884
:10406000806810F0010F0AD02068007BA16B0870F7
:10407000A06B401CA063E08F401EE0870AE0FEF7C3
:104080009FFCC01BA84201D3681C00D115B94FF09A
:1040900003092FE0E08F0028E1D11EE01AE020683C
:1040A000806810F0010F0AD02068C068A16B0880FA
:1040B000A06B801CA063E08F401EE0870AE0FEF743
:1040C0007FFCC01BA84201D3681C00D115B94FF07A
:1040D00003090FE0E08F0028E1D13A462946204647
:1040E00001F0B4F908B120206065606D08B14FF0AF
:1040F000010900BF012084F8510000BF002084F8AE
:10410000500000BF484665E72DE9F84F0446884651
:1041100016461D464FF0000A00BF94F850000128D3
:1041200002D10220BDE8F88F012084F8500000BFC2
:10413000FEF746FC0746B14694F85100012802D02C
:104140004FF0020AA7E0B8F1000F00D016B94FF007
:10415000010AA0E0032084F8510000206065C4F843
:104160003080A686E686A063A087E087606420642E
:10417000A068B0F5004F05D12068006840F4804089
:10418000216808602068006800F04000402805D0E1
:104190002068006840F0400021680860E068B0F5E1
:1041A000006F2FD1606810B1B9F1010F09D1206BF8
:1041B00000882168C860206B801C2063E08E401E50
:1041C000E0861BE02068806800F0020002280AD127
:1041D000206B00882168C860206B801C2063E08E03
:1041E000401EE0860AE0FEF7EBFBC01BA84201D3AD
:1041F000681C00D115B94FF0030A4CE0E08E00288E
:10420000E0D12EE0606810B1B9F1010F09D1206B47
:10421000007821680873206B401C2063E08E401EEC
:10422000E0861BE02068806800F0020002280AD1C6
:10423000206B007821680873206B401C2063E08E9F
:10424000401EE0860AE0FEF7BBFBC01BA84201D37C
:10425000681C00D115B94FF0030A1CE0E08E00285D
:10426000E0D13A462946204601F03AF908B120202B
:104270006065A06850B900BF002000902068C06849
:10428000009020688068009000BF00BF606D08B19A
:104290004FF0010A00BF012084F8510000BF002048
:1042A00084F8500000BF50463CE72DE9FF5F04460C
:1042B000884691461D460E9E0120029000200190E6
:1042C00000BF94F85000012803D1022004B0BDE8DB
:1042D000F09F012084F8500000BFFEF771FB0746F5
:1042E00094F851B060680390AA46BBF1010F0BD05F
:1042F0000398B0F5827F04D1A06810B9BBF1040F18
:1043000002D002200190DBE0B8F1000F03D0B9F138
:10431000000F00D015B901200190D1E094F85100B0
:10432000042802D0052084F8510000206065C4F8FC
:104330003890E587A587C4F83080E586A586206497
:1043400060642068006800F04000402805D02068C4
:10435000006840F0400021680860E068B0F5006F38
:104360004AD1606810B1BAF1010F09D1206B008801
:104370002168C860206B801C2063E08E401EE086B0
:1043800033E02068806800F00200022810D1E08E3F
:1043900070B1029801280BD1206B00882168C86099
:1043A000206B801C2063E08E401EE086002002907F
:1043B0002068806810F0010F0DD0E08F58B12068A0
:1043C000C068A16B0880A06B801CA063E08F401EBA
:1043D000E08701200290FEF7F3FAC01BB04204D33D
:1043E000701C02D0032001906AE0E08E0028C8D142
:1043F000E08F0028C5D14AE0606810B1BAF1010F22
:1044000009D1206B007821680873206B401C206361
:10441000E08E401EE08634E02068806800F00200F4
:10442000022810D1E08E70B1029801280BD1206BC8
:10443000007821680873206B401C2063E08E401ECA
:10444000E086002002902068806810F0010F0DD0F7
:10445000E08F58B12068C068A16B0870A06B401C49
:10446000A063E08F401EE08701200290FEF7A8FACB
:10447000C01BB04201D3701C00D116B903200190BB
:104480001EE0E08E0028C7D1E08F0028C4D13A4654
:104490003146204601F024F820B10120019020206F
:1044A00060650DE0A06850B900BF00200090206852
:1044B000C068009020688068009000BF00BF00BF07
:1044C000012084F8510000BF002084F8500000BF94
:1044D0000198FBE670B504462546681EB0F1807F62
:1044E00001D301200FE0681E4FF0E02148610F2149
:1044F0004FF0FF3003F0A6FD00204FF0E02188616F
:1045000007200861002070BD7047704710B5044651
:104510000CB9012010BD94F83D0028B9002084F8A2
:104520003C00204600F00CF8022084F83D00211DDC
:10453000206801F0DDF8012084F83D000020E9E763
:1045400008B5144A016891420FD100BF00210091C3
:104550001149096841F010010F4A116011460968BC
:1045600001F01001009100BF13E00C4A0168914274
:104570000FD100BF002100910749096841F02001D7
:10458000054A11601146096801F02001009100BF41
:1045900000BF08BD00100040403802400014004039
:1045A00001460868C06840F001000B68D8600868E0
:1045B000806800F00702062A05D00868006840F00D
:1045C00001000B6818600020704701460868C06849
:1045D00020F001000A68D06000BF0868006A41F25C
:1045E000111210420AD10868006A9210104205D1D7
:1045F0000868006820F001000A68106000BF002011
:104600007047704710B5044620680069C0F3400049
:10461000D8B12068C068C0F34000B0B16FF00200AC
:1046200021680861012020772068806910F0030F5D
:1046300003D02046FFF7E5FF05E0204600F0ADF887
:10464000204600F0ABF80020207720680069C0F316
:104650008000D8B12068C068C0F38000B0B16FF0AE
:10466000040021680861022020772068806910F426
:10467000407F03D02046FFF7C4FF05E0204600F04E
:104680008CF8204600F08AF8002020772068006926
:10469000C0F3C000D8B12068C068C0F3C000B0B19A
:1046A0006FF0080021680861042020772068C06945
:1046B00010F0030F03D02046FFF7A3FF05E02046CC
:1046C00000F06BF8204600F069F8002020772068A1
:1046D0000069C0F30010D8B12068C068C0F30010B2
:1046E000B0B16FF0100021680861082020772068C1
:1046F000C06910F4407F03D02046FFF782FF05E039
:10470000204600F04AF8204600F048F800202077C4
:104710002068006910F0010F0BD02068C06810F00D
:10472000010F06D06FF0010021680861204600F0FB
:1047300037F820680069C0F3C01058B12068C0681D
:10474000C0F3C01030B16FF08000216808612046CE
:10475000FFF7DAFE20680069C0F3801058B12068C6
:10476000C068C0F3801030B16FF04000216808616C
:10477000204600F097F820680069C0F3401058B157
:104780002068C068C0F3401030B16FF0200021688D
:1047900008612046FFF7B9FE10BD70477047000062
:1047A00010B50446314884422DD100228021304882
:1047B000FEF700F92F48007838B92F482F490978BB
:1047C00030F811002E4908600AE02A4800780128D4
:1047D00006D12C482949097830F811002849086089
:1047E000012280212248FEF7E5F824480078401C89
:1047F000224908700846007823490988884202DB6C
:1048000000201E490870214884422ED10022202118
:104810001748FEF7CFF81E480078012807D11D4839
:104820001D49097830F811001C4948610AE0184810
:104830000078012806D11A481749097830F8110084
:1048400016494861012220210948FEF7B3F81248B1
:104850000078401C10490870084600780A49098809
:10486000884202DB01200C49087010BD4002002084
:10487000000002403A000020200C002038000020F8
:10488000140C0240201000201C0000208002002098
:104890003B000020200E00203900002000100240C4
:1048A00020120020704770B504460025206840693A
:1048B000C0F3C01594F8390021280ED16DB12068DD
:1048C000406920F0800021684861206B10B1206BA6
:1048D000FDF718FD204600F0F3FF20684069C0F3A3
:1048E000801594F83A0022280ED16DB120684069F5
:1048F00020F0400021684861606B10B1606BFDF7EB
:1049000001FD204600F0BCFF002070BD7047000094
:104910002DE9F0470446206805682068C6682068CD
:1049200047694FF00008C14605F00F08B8F1000FC5
:104930000AD115F0200F07D016F0200F04D0204622
:1049400000F0C8FFBDE8F087B8F1000F71D017F094
:10495000010F02D116F4907F6BD015F0010F06D035
:1049600016F4807F03D0E06B40F00100E06315F0A7
:10497000040F06D017F0010F03D0E06B40F00200E7
:10498000E06315F0020F06D017F0010F03D0E06BC3
:1049900040F00400E06315F0080F09D016F0200F76
:1049A00002D117F0010F03D0E06B40F00800E06384
:1049B000E06B70B315F0200F05D016F0200F02D079
:1049C000204600F087FF20684069C0F38019E06B43
:1049D00010F0080F02D1B9F1000F23D0204600F0EB
:1049E0004FFF2068406900F04000402816D1206841
:1049F000406920F0400021684861606B50B1184860
:104A0000616B0865606BFDF7D1FC10B1606B016DE7
:104A100088470CE02046FFF779FF08E02046FFF7C3
:104A200075FF04E02046FFF771FF0020E06389E78F
:104A3000FFE715F0800F06D016F0800F03D0204658
:104A400001F090F97EE715F0400F06D016F0400F08
:104A500003D0204600F024FF74E700BF72E7000097
:104A6000C957000810B504460CB9012010BDA06953
:104A700000B100E000BF94F8390028B9002084F8A4
:104A80003800204600F028F8242084F839002068F7
:104A9000C06820F400502168C860204600F06EFF16
:104AA0002068006920F4904021680861206840690E
:104AB00020F02A00216848612068C06840F4005056
:104AC0002168C8600020E063202084F8390084F861
:104AD0003A000020CAE7000010B586B00446142151
:104AE00001A8FBF7B7FB3F492068884277D100BF98
:104AF000002000903C48006840F010003A490860EF
:104B00000846006800F01000009000BF00BF00BF22
:104B10000020009034481438006840F00100324909
:104B2000143908600846006800F00100009000BFDA
:104B300000BF4FF4C060019002200290012003905A
:104B4000032004900720059001A92848FDF732FEB4
:104B50002748284908604FF0006048600021254838
:104B60008160C1604FF48061016100214161816118
:104B70004FF48071C161002101624162FDF746FD81
:104B800008B1FDF7EFFA00BF1A486063846300BF05
:104B900017487830184908604FF00060486040219D
:104BA000154881600021C1604FF4806101610021DE
:104BB00041618161C16101624162FDF727FD08B178
:104BC000FDF7D0FA00BF0C482063846300BF0022C9
:104BD00011462520FDF780FF2520FDF76BFF06B06D
:104BE00010BD0000001001404438024000000240A7
:104BF00040640240000300206003002077B581B0CC
:104C00000446154694F83A00202850D1029800B185
:104C100015B9012004B070BD00BF94F83800012818
:104C200001D10220F6E7012084F8380000BF029885
:104C3000A062A5850020E063222084F83A001D4888
:104C4000616BC8631C48616B08641C48616BC86475
:104C50000020616B086502AE32682368191D2B467F
:104C6000606BFDF749FD00BF0020009020680068E0
:104C7000009020684068009000BF00BF00BF002087
:104C800084F8380000BF2068C06840F48070216854
:104C9000C8602068406940F00100216848612068D0
:104CA000406940F04000216848610020B2E70220DE
:104CB000B0E700002D58000873580008DD570008C1
:104CC000704770472DE9F84304460D4616461F46C7
:104CD0004FF0000994F8390020285DD105B116B9CC
:104CE0000120BDE8F88300BF94F83800012801D105
:104CF0000220F6E7012084F8380000BF0020E063BE
:104D0000212084F83900FDF75BFE8146A684E68405
:104D100000BF002084F8380000BF2BE0E08C401E6C
:104D2000E084A068B0F5805F16D14B460022802158
:104D30002046009701F04BF808B10320D1E7A846C0
:104D4000B8F80000C0F3080021684860206908B97D
:104D5000AD1C0FE06D1C0DE04B460022802120466B
:104D6000009701F034F808B10320BAE715F8010BF9
:104D700021684860E08C0028D0D14B4600224021B9
:104D80002046009701F023F808B10320A9E720206E
:104D900084F839000020A4E70220A2E7704700BF92
:104DA000FEE730B50B46002100BF16E00A24B4EB45
:104DB000107F05D9302404EB107403F8114005E08E
:104DC000412404EB10740A3C03F811400001002553
:104DD0004C00641C1D554C1CE1B29142E6DB30BD19
:104DE00008B500BF002000901E48006840F4800015
:104DF0001C4908600846006800F48000009000BF6D
:104E000000BF1948194908600020486080211748F0
:104E100081608900C160002101614FF4006141613E
:104E2000890081610021C161016204214162032185
:104E300081620021C1620163FDF7E8FB08B1FDF763
:104E400091F9002211463A20FDF746FE3A20FDF77F
:104E500031FE002211464620FDF73EFE4620FDF7BA
:104E600029FE08BD3038024010640240C003002013
:104E700000B587B0142102A8FBF7ECF900BF0020B1
:104E800001905A48006840F01000584908600846F0
:104E9000006800F01000019000BF00BF00BF0020BC
:104EA00001900846006840F08000086008460068ED
:104EB00000F08000019000BF00BF00BF0020019003
:104EC0000846006840F0010008600846006800F0ED
:104ED0000100019000BF00BF00BF00200190084604
:104EE000006840F0020008600846006800F0020018
:104EF000019000BF00BF00BF00200190084600687D
:104F000040F0080008600846006800F008000190C2
:104F100000BF00BF00224FF6FF713548FDF74AFD84
:104F20000022F0213348FDF745FD00224FF4C05127
:104F30003148FDF73FFD00224FF6FF712F48FDF786
:104F400039FD4FF6FF70029001200390002004907D
:104F50000320059002A92648FDF72CFC5020029062
:104F60000120039000200490059002A92148FDF73C
:104F700021FC022002900120039000200490059063
:104F800002A91C48FDF716FCA02002900120039006
:104F9000002004900320059002A91648FDF70AFCA2
:104FA0004FF48060029000200390049002A9124800
:104FB000FDF700FC4FF4C050029001200390002048
:104FC0000490059002A90C48FDF7F4FB4FF6FF7022
:104FD000029001200390002004900320059002A974
:104FE0000648FDF7E7FB07B000BD0000303802407F
:104FF000001002400000024000040240000C024089
:1050000010B5002211463620FDF766FD3620FDF76B
:1050100051FD002211463720FDF75EFD3720FDF7D8
:1050200049FD10BD10B50E480E4908604FF482705E
:10503000486000210B488160C160016141614FF40B
:10504000007181613821C161002101624162816288
:105050000A21C162FEF71CFF08B1FDF783F810BDFD
:1050600000380040E80100201CB5002000900190AD
:10507000084809490860012048600021064881600D
:105080000621C16000218161FFF740FA08B1FDF7F8
:1050900069F81CBD00100040400200201CB5002033
:1050A00000900190084809490860012048600021EB
:1050B000064881600621C16000218161FFF726FA60
:1050C00008B1FDF74FF81CBD00140040800200201D
:1050D00010B51248124908604FF4E13048600021D1
:1050E0000F488160C16001610C2141610021816133
:1050F000C161FFF7B7FC08B1FDF734F80848006854
:10510000C06840F0100006490968C8604FF480721A
:1051100004490348FFF772FD10BD00000010014074
:10512000C00200202004002010B500220D490E48C6
:1051300001F0FAFA08B1FDF715F80C490A4801F038
:1051400091FD08B1FDF70EF80949074800F0DBFFB3
:1051500008B1FDF707F8044801F04EFE08B1FDF76D
:1051600001F810BD3C00002020140020C0000020E9
:105170008C00002000BFFEE77047000010B5024819
:10518000FDF7BDFE10BD0000BC1600202DE9F04764
:1051900005460C462F683E46D7F8408006F530603D
:1051A00000EB4410D0F80890286901280FD1184866
:1051B00080451BD909F40040B0F5004F16D14FF4DB
:1051C000004106F5306000EB441081600EE01148AC
:1051D00080450BD109F40040B0F5004F06D14FF4E3
:1051E000004106F5306000EB441081602846FEF770
:1051F00084FA0748804508D92869012805D105F5B2
:1052000071720121286802F00DFB0020BDE8F087D3
:105210000A30544F0A31544F2DE9F04705460C46E9
:10522000D5F800804646D8F8409006F5306000EB8F
:1052300044108768286901287ED107F008000828F3
:105240001ED1524881450BD907F40040B0F5004FFC
:1052500006D14FF4004106F5306000EB4410816048
:105260002846FEF74AFA05F571720121286802F016
:10527000D9FA082106F5306000EB4410816082E025
:1052800007F02000202806D1202106F5306000EB31
:105290004410816077E017F0280F74D13B488145B6
:1052A0000CD907F40040B0F5004F07D14FF400418E
:1052B00006F5306000EB4410816064E0C4EBC4018B
:1052C00005F5FE7000EB8100816806F5306000EBAB
:1052D00044100069C0F31200091AC4EBC40205F5BA
:1052E000FE7000EB82008161C4EBC40105F5FE7025
:1052F00000EB8100C4EBC402C16805F5FE7000EB51
:10530000820080680144C4EBC40205F5FE7000EB26
:105310008200C160E1B22846FDF776FCFCB9C4EB1F
:10532000C40105F5FE7000EB81004069B8B905F5D0
:1053300071720121286800E002E002F073FA22E0B5
:10534000134881451BD107F40040B0F5004F07D149
:105350004FF4004106F5306000EB4410816012E02C
:1053600007F02000202805D1202106F5306000EB51
:1053700044108160E1B22846FDF746FC03E0E1B24B
:105380002846FDF741FC0020BDE8F0870A30544F65
:105390000A31544F2DE9F84F07460E46D7F80090D2
:1053A000C846C6EBC60107F13C0000EB8104D4E916
:1053B0000510884202D90120BDE8F88FD4E9050123
:1053C000451AA068A84200D2A568E81C4FEA900AD6
:1053D00017E0D4E90501451AA068A84200D2A568E3
:1053E000E81C4FEA900A387CABB2F2B20090484613
:1053F000E16802F0D5FDE0682844E060A069284437
:10540000A06108F5106000EB4610806980B250453D
:1054100006D3D4E90510884202D260690028D8D1A9
:10542000D4E9050188420ED806F00F01012000FAE8
:1054300001FB40F6340050F8080020EA0B0040F66B
:10544000340141F808000020B6E77047F8B504467B
:105450000E4615466068B0F5827F0DD1A068B0F5A4
:10546000004F03D0A068B0F5806F05D120680068B8
:1054700020F04000216808606068B0F5827F1FD18D
:10548000A068B0F5806F0DD0334600228021204601
:10549000009500F05BF808B3606D40F02000606597
:1054A0000320F8BD3346002201212046009500F07C
:1054B0004DF898B1606D40F0200060650320F0E782
:1054C0003346002201212046009500F03FF828B124
:1054D000606D40F0200060650320E2E70020E0E717
:1054E0007CB504460D461646164800681821B0FBE8
:1054F000F1F01549B0FBF1F04FF47A714843019097
:105500006068B0F5827F0DD12B46002280212046B5
:10551000009600F01BF898B1606D40F020006065C7
:1055200003207CBD00BF019800B908E00198401E2F
:10553000019020688068C0F3C0100028F3D100BF3C
:105540000020EEE7AC00002040420F002DE9F041C2
:1055500004460E4617461D46DDF818803EE0681CDE
:105560003CD0FDF72DFAA0EB0800A84200D2A5BB65
:105570002068406820F0E000216848606068B0F56D
:10558000827F0DD1A068B0F5004F03D0A068B0F5C0
:10559000806F05D12068006820F040002168086015
:1055A000A06AB0F5005F0DD100BF2068006820F44C
:1055B0000050216808602068006840F400502168AD
:1055C000086000BF012084F8510000BF002084F86B
:1055D000500000BF0320BDE8F081FFE7206880682D
:1055E0003040B04201D1012000E00020B842B6D1E5
:1055F0000020F0E7704710B5FDF7E8F910BD000096
:1056000000B593B0302107A8FAF724FE142102A8B0
:10561000FAF720FE00BF002001902448006840F007
:105620008050224908600846006800F080500190D0
:1056300000BF00BF00BF002001901D48006840F47B
:1056400080401B4908600846006800F480400190D3
:1056500000BF00BF012007900004089002200D90B9
:1056600041050E9104210F91A82110910221119161
:105670000721129107A8FEF7C9F908B1FCF772FDDE
:105680000F20029002200390002004904FF4A050BD
:1056900005904FF480500690052102A8FEF776F899
:1056A00008B1FCF75FFD13B000BD000040380240B8
:1056B000007000400548006840F47000034908602D
:1056C0004FF00060014980390860704788ED00E0C4
:1056D00010B50248FEF796FF10BD00004002002002
:1056E00010B50248FEF78EFF10BD000080020020BA
:1056F00010B50268294B98420ED0B0F1804F0BD004
:10570000274B984208D0274B984205D0264B984209
:1057100002D0264B984203D122F070024B681A4304
:105720001E4B984220D0B0F1804F1DD01C4B9842A8
:105730001AD01C4B984217D01B4B984214D01B4BCD
:10574000984211D01A4B98420ED01A4B98420BD067
:10575000194B984208D0194B984205D0184B9842E3
:1057600002D0184B984203D122F44072CB681A43FE
:1057700022F080034C6943EA040202608B68C36232
:105780000B688362054B984202D0084B984201D1C6
:105790000B6903630123436110BD00000000014059
:1057A0000004004000080040000C004000040140DC
:1057B0000040014000440140004801400018004002
:1057C000001C00400020004070B50546AC6B002076
:1057D000E085E0842046FFF799F870BD70B5064675
:1057E0000025B46B20684069C0F3C01594F83900F7
:1057F000212805D125B10020E084204600F060F882
:1058000020684069C0F3801594F83A00222805D139
:1058100025B10020E085204600F032F8E06B40F032
:105820001000E0632046FFF771F870BD70B50546C3
:10583000AC6B2868006810F4807F16D10020E085EA
:105840002068C06820F480702168C86020684069C2
:1058500020F00100216848612068406920F0400084
:1058600021684861202084F83A002046FFF728FA92
:1058700070BD70B50446A56B2846FFF722FA70BDCF
:105880000168C96821F490710268D16001684969B2
:1058900021F0010102685161202180F83A1070471F
:1058A00010B504462068C06820F040002168C86038
:1058B000202084F839002046FFF770FA002010BD40
:1058C0000168C96821F0C0010268D160202180F818
:1058D0003910704770B5044694F83A0022284BD12D
:1058E000A068B0F5805F13D1A56A206940B920682F
:1058F0004068C0F308002880A06A801CA06219E0FC
:1059000020684068C0B22880A06A401CA06211E0F4
:10591000206938B920684068C1B2A26A501CA062F0
:10592000117007E02068406800F07F01A26A501CF7
:10593000A0621170E08D401E0004000CE08519D1BA
:105940002068C06820F020002168C8602068C06816
:1059500020F480702168C8602068406920F0010050
:1059600021684861202084F83A002046FFF7A8F912
:10597000002070BD0020FCE70220FAE72DE9F84F77
:1059800004462068006920F44050E168084321681B
:1059900008612169A068084361690843E169084317
:1059A00000902068C06849F20C6188430099084360
:1059B0002168C8602068406920F44070A1690843EC
:1059C00021684861E069B0F5004F75D1E34920686E
:1059D000884203D0E249206888426FD1FDF7AEFFCC
:1059E000814602206168A0FB01510B461920A9FBEA
:1059F00000712A463846FAF7E3FB6421B0FBF1F068
:105A00004FEA001A02206168A0FB01510B461920E1
:105A1000A9FB00712A463846FAF7D2FB0746022056
:105A20006168A0FB01510B461920A9FB00B12A4671
:105A30005846FAF7C5FB6421B0FBF1F000EBC0015A
:105A400001EB0010A7EB8000322101EBC0006421C4
:105A5000B0FBF1F000F0F8000AEB400A02206168A8
:105A6000A0FB01510B461920A9FB00712A463846BC
:105A7000FAF7A6FB074602206168A0FB01510B461E
:105A80001920A9FB00B12A465846FAF799FB642170
:105A9000B0FBF1F000EBC00101EB0010A7EB8000C0
:105AA000322101EBC0006421B0FBF1F000F00700EF
:105AB0005044216888604FE16EE0FFE7FDF72EFF5C
:105AC000814602206168A0FB01510B461920A9FB09
:105AD00000712A463846FAF773FB6421B0FBF1F0F7
